{
  "_format": "hh-sol-artifact-1",
  "contractName": "MultiSignatureContract",
  "sourceName": "contracts/MultiSignatureContract.sol",
  "abi": [
    {
      "inputs": [
        {
          "internalType": "string",
          "name": "_name",
          "type": "string"
        },
        {
          "internalType": "string",
          "name": "_description",
          "type": "string"
        }
      ],
      "stateMutability": "payable",
      "type": "constructor"
    },
    {
      "inputs": [],
      "name": "addParticipant",
      "outputs": [],
      "stateMutability": "payable",
      "type": "function"
    },
    {
      "inputs": [],
      "name": "amount",
      "outputs": [
        {
          "internalType": "uint256",
          "name": "",
          "type": "uint256"
        }
      ],
      "stateMutability": "view",
      "type": "function"
    },
    {
      "inputs": [
        {
          "internalType": "uint256",
          "name": "transactionId",
          "type": "uint256"
        }
      ],
      "name": "confirmTransaction",
      "outputs": [],
      "stateMutability": "nonpayable",
      "type": "function"
    },
    {
      "inputs": [
        {
          "internalType": "uint256",
          "name": "",
          "type": "uint256"
        },
        {
          "internalType": "address",
          "name": "",
          "type": "address"
        }
      ],
      "name": "confirmations",
      "outputs": [
        {
          "internalType": "bool",
          "name": "",
          "type": "bool"
        }
      ],
      "stateMutability": "view",
      "type": "function"
    },
    {
      "inputs": [
        {
          "internalType": "string",
          "name": "_name",
          "type": "string"
        },
        {
          "internalType": "string",
          "name": "_description",
          "type": "string"
        },
        {
          "internalType": "uint256",
          "name": "_amount",
          "type": "uint256"
        }
      ],
      "name": "createTransaction",
      "outputs": [],
      "stateMutability": "nonpayable",
      "type": "function"
    },
    {
      "inputs": [],
      "name": "description",
      "outputs": [
        {
          "internalType": "string",
          "name": "",
          "type": "string"
        }
      ],
      "stateMutability": "view",
      "type": "function"
    },
    {
      "inputs": [
        {
          "internalType": "uint256",
          "name": "transactionId",
          "type": "uint256"
        }
      ],
      "name": "executeTransaction",
      "outputs": [],
      "stateMutability": "nonpayable",
      "type": "function"
    },
    {
      "inputs": [],
      "name": "getAllParticipants",
      "outputs": [
        {
          "internalType": "address[]",
          "name": "",
          "type": "address[]"
        }
      ],
      "stateMutability": "view",
      "type": "function"
    },
    {
      "inputs": [],
      "name": "getTransactions",
      "outputs": [
        {
          "components": [
            {
              "internalType": "string",
              "name": "name",
              "type": "string"
            },
            {
              "internalType": "string",
              "name": "description",
              "type": "string"
            },
            {
              "internalType": "uint256",
              "name": "amount",
              "type": "uint256"
            },
            {
              "internalType": "address",
              "name": "reciever",
              "type": "address"
            },
            {
              "internalType": "uint256",
              "name": "transactionId",
              "type": "uint256"
            }
          ],
          "internalType": "struct MultiSignatureContract.Transaction[]",
          "name": "",
          "type": "tuple[]"
        }
      ],
      "stateMutability": "view",
      "type": "function"
    },
    {
      "inputs": [
        {
          "internalType": "address",
          "name": "_address",
          "type": "address"
        }
      ],
      "name": "isParticipant",
      "outputs": [
        {
          "internalType": "bool",
          "name": "",
          "type": "bool"
        }
      ],
      "stateMutability": "view",
      "type": "function"
    },
    {
      "inputs": [],
      "name": "name",
      "outputs": [
        {
          "internalType": "string",
          "name": "",
          "type": "string"
        }
      ],
      "stateMutability": "view",
      "type": "function"
    },
    {
      "inputs": [],
      "name": "description",
      "outputs": [
        {
          "internalType": "bytes",
          "name": "",
          "type": "bytes"
        }
      ],
      "stateMutability": "view",
      "type": "function"
    },
    {
      "inputs": [],
      "name": "getAllParticipants",
      "outputs": [
        {
          "internalType": "address[]",
          "name": "",
          "type": "address[]"
        }
      ],
      "stateMutability": "view",
      "type": "function"
    },
    {
      "inputs": [],
      "name": "name",
      "outputs": [
        {
          "internalType": "string",
          "name": "",
          "type": "string"
        }
      ],
      "stateMutability": "view",
      "type": "function"
    },
    {
      "inputs": [],
      "name": "owner",
      "outputs": [
        {
          "internalType": "address",
          "name": "",
          "type": "address"
        }
      ],
      "stateMutability": "view",
      "type": "function"
    },
    {
      "inputs": [
        {
          "internalType": "uint256",
          "name": "",
          "type": "uint256"
        }
      ],
      "name": "participants",
      "outputs": [
        {
          "internalType": "address",
          "name": "",
          "type": "address"
        }
      ],
      "stateMutability": "view",
      "type": "function"
    },
    {
      "inputs": [],
      "name": "required",
      "outputs": [
        {
          "internalType": "uint256",
          "name": "",
          "type": "uint256"
        }
      ],
      "stateMutability": "view",
      "type": "function"
    },
    {
      "inputs": [],
      "name": "transactionCount",
      "outputs": [
        {
          "internalType": "uint56",
          "name": "",
          "type": "uint56"
        }
      ],
      "stateMutability": "view",
      "type": "function"
    },
    {
      "inputs": [
        {
          "internalType": "uint256",
          "name": "",
          "type": "uint256"
        }
      ],
      "name": "transactions",
      "outputs": [
        {
          "internalType": "string",
          "name": "name",
          "type": "string"
        },
        {
          "internalType": "string",
          "name": "description",
          "type": "string"
        },
        {
          "internalType": "uint256",
          "name": "amount",
          "type": "uint256"
        },
        {
          "internalType": "address",
          "name": "reciever",
          "type": "address"
        },
        {
          "internalType": "uint256",
          "name": "transactionId",
          "type": "uint256"
        }
      ],
      "stateMutability": "view",
      "type": "function"
    },
    {
      "stateMutability": "payable",
      "type": "receive"
    }
  ],
  "bytecode": "0x60806040526000600660006101000a81548166ffffffffffffff021916908366ffffffffffffff16021790555060405162002533380380620025338339818101604052810190620000519190620002e2565b336000806101000a81548173ffffffffffffffffffffffffffffffffffffffff021916908373ffffffffffffffffffffffffffffffffffffffff1602179055503460038190555060016002819055508160049081620000b19190620005b2565b508060059081620000c39190620005b2565b50600160008054906101000a900473ffffffffffffffffffffffffffffffffffffffff169080600181540180825580915050600190039060005260206000200160009091909190916101000a81548173ffffffffffffffffffffffffffffffffffffffff021916908373ffffffffffffffffffffffffffffffffffffffff160217905550505062000699565b6000604051905090565b600080fd5b600080fd5b600080fd5b600080fd5b6000601f19601f8301169050919050565b7f4e487b7100000000000000000000000000000000000000000000000000000000600052604160045260246000fd5b620001b8826200016d565b810181811067ffffffffffffffff82111715620001da57620001d96200017e565b5b80604052505050565b6000620001ef6200014f565b9050620001fd8282620001ad565b919050565b600067ffffffffffffffff82111562000220576200021f6200017e565b5b6200022b826200016d565b9050602081019050919050565b60005b83811015620002585780820151818401526020810190506200023b565b60008484015250505050565b60006200027b620002758462000202565b620001e3565b9050828152602081018484840111156200029a576200029962000168565b5b620002a784828562000238565b509392505050565b600082601f830112620002c757620002c662000163565b5b8151620002d984826020860162000264565b91505092915050565b60008060408385031215620002fc57620002fb62000159565b5b600083015167ffffffffffffffff8111156200031d576200031c6200015e565b5b6200032b85828601620002af565b925050602083015167ffffffffffffffff8111156200034f576200034e6200015e565b5b6200035d85828601620002af565b9150509250929050565b600081519050919050565b7f4e487b7100000000000000000000000000000000000000000000000000000000600052602260045260246000fd5b60006002820490506001821680620003ba57607f821691505b602082108103620003d057620003cf62000372565b5b50919050565b60008190508160005260206000209050919050565b60006020601f8301049050919050565b600082821b905092915050565b6000600883026200043a7fffffffffffffffffffffffffffffffffffffffffffffffffffffffffffffffff82620003fb565b620004468683620003fb565b95508019841693508086168417925050509392505050565b6000819050919050565b6000819050919050565b6000620004936200048d62000487846200045e565b62000468565b6200045e565b9050919050565b6000819050919050565b620004af8362000472565b620004c7620004be826200049a565b84845462000408565b825550505050565b600090565b620004de620004cf565b620004eb818484620004a4565b505050565b5b81811015620005135762000507600082620004d4565b600181019050620004f1565b5050565b601f82111562000562576200052c81620003d6565b6200053784620003eb565b8101602085101562000547578190505b6200055f6200055685620003eb565b830182620004f0565b50505b505050565b600082821c905092915050565b6000620005876000198460080262000567565b1980831691505092915050565b6000620005a2838362000574565b9150826002028217905092915050565b620005bd8262000367565b67ffffffffffffffff811115620005d957620005d86200017e565b5b620005e58254620003a1565b620005f282828562000517565b600060209050601f8311600181146200062a576000841562000615578287015190505b62000621858262000594565b86555062000691565b601f1984166200063a86620003d6565b60005b8281101562000664578489015182556001820191506020850194506020810190506200063d565b8683101562000684578489015162000680601f89168262000574565b8355505b6001600288020188555050505b505050505050565b611e8a80620006a96000396000f3fe6080604052600436106100f75760003560e01c80639ace38c21161008a578063c01a8c8411610059578063c01a8c8414610351578063dc8452cd1461037a578063ee22610b146103a5578063fffefd91146103ce576100fe565b80639ace38c214610291578063aa8c217c146102d2578063b77bf600146102fd578063bffca24a14610328576100fe565b80637284e416116100c65780637284e416146101d357806383920e90146101fe5780638da5cb5b14610229578063929066f514610254576100fe565b806306fdde0314610103578063195ec9ee1461012e5780633411c81c1461015957806335c1d34914610196576100fe565b366100fe57005b600080fd5b34801561010f57600080fd5b506101186103d8565b6040516101259190611220565b60405180910390f35b34801561013a57600080fd5b50610143610466565b6040516101509190611332565b60405180910390f35b34801561016557600080fd5b50610180600480360381019061017b91906113c0565b6104f4565b60405161018d919061141b565b60405180910390f35b3480156101a257600080fd5b506101bd60048036038101906101b89190611436565b610523565b6040516101ca9190611472565b60405180910390f35b3480156101df57600080fd5b506101e8610562565b6040516101f59190611220565b60405180910390f35b34801561020a57600080fd5b506102136105f0565b6040516102209190611625565b60405180910390f35b34801561023557600080fd5b5061023e6107dd565b60405161024b9190611472565b60405180910390f35b34801561026057600080fd5b5061027b60048036038101906102769190611647565b610801565b604051610288919061141b565b60405180910390f35b34801561029d57600080fd5b506102b860048036038101906102b39190611436565b6108af565b6040516102c9959493929190611683565b60405180910390f35b3480156102de57600080fd5b506102e7610a25565b6040516102f491906116e4565b60405180910390f35b34801561030957600080fd5b50610312610a2b565b60405161031f9190611721565b60405180910390f35b34801561033457600080fd5b5061034f600480360381019061034a91906117a1565b610a44565b005b34801561035d57600080fd5b5061037860048036038101906103739190611436565b610d00565b005b34801561038657600080fd5b5061038f610e05565b60405161039c91906116e4565b60405180910390f35b3480156103b157600080fd5b506103cc60048036038101906103c79190611436565b610e0b565b005b6103d661104d565b005b600480546103e590611865565b80601f016020809104026020016040519081016040528092919081815260200182805461041190611865565b801561045e5780601f106104335761010080835404028352916020019161045e565b820191906000526020600020905b81548152906001019060200180831161044157829003601f168201915b505050505081565b606060018054806020026020016040519081016040528092919081815260200182805480156104ea57602002820191906000526020600020905b8160009054906101000a900473ffffffffffffffffffffffffffffffffffffffff1673ffffffffffffffffffffffffffffffffffffffff16815260200190600101908083116104a0575b5050505050905090565b60096020528160005260406000206020528060005260406000206000915091509054906101000a900460ff1681565b6001818154811061053357600080fd5b906000526020600020016000915054906101000a900473ffffffffffffffffffffffffffffffffffffffff1681565b6005805461056f90611865565b80601f016020809104026020016040519081016040528092919081815260200182805461059b90611865565b80156105e85780601f106105bd576101008083540402835291602001916105e8565b820191906000526020600020905b8154815290600101906020018083116105cb57829003601f168201915b505050505081565b60606008805480602002602001604051908101604052809291908181526020016000905b828210156107d457838290600052602060002090600502016040518060a001604052908160008201805461064790611865565b80601f016020809104026020016040519081016040528092919081815260200182805461067390611865565b80156106c05780601f10610695576101008083540402835291602001916106c0565b820191906000526020600020905b8154815290600101906020018083116106a357829003601f168201915b505050505081526020016001820180546106d990611865565b80601f016020809104026020016040519081016040528092919081815260200182805461070590611865565b80156107525780601f1061072757610100808354040283529160200191610752565b820191906000526020600020905b81548152906001019060200180831161073557829003601f168201915b50505050508152602001600282015481526020016003820160009054906101000a900473ffffffffffffffffffffffffffffffffffffffff1673ffffffffffffffffffffffffffffffffffffffff1673ffffffffffffffffffffffffffffffffffffffff16815260200160048201548152505081526020019060010190610614565b50505050905090565b60008054906101000a900473ffffffffffffffffffffffffffffffffffffffff1681565b600080600090505b6001805490508110156108a4578273ffffffffffffffffffffffffffffffffffffffff166001828154811061084157610840611896565b5b9060005260206000200160009054906101000a900473ffffffffffffffffffffffffffffffffffffffff1673ffffffffffffffffffffffffffffffffffffffff16036108915760019150506108aa565b808061089c906118f4565b915050610809565b50600090505b919050565b600881815481106108bf57600080fd5b90600052602060002090600502016000915090508060000180546108e290611865565b80601f016020809104026020016040519081016040528092919081815260200182805461090e90611865565b801561095b5780601f106109305761010080835404028352916020019161095b565b820191906000526020600020905b81548152906001019060200180831161093e57829003601f168201915b50505050509080600101805461097090611865565b80601f016020809104026020016040519081016040528092919081815260200182805461099c90611865565b80156109e95780601f106109be576101008083540402835291602001916109e9565b820191906000526020600020905b8154815290600101906020018083116109cc57829003601f168201915b5050505050908060020154908060030160009054906101000a900473ffffffffffffffffffffffffffffffffffffffff16908060040154905085565b60035481565b600660009054906101000a900466ffffffffffffff1681565b610a4d33610801565b610a8c576040517f08c379a0000000000000000000000000000000000000000000000000000000008152600401610a83906119ae565b60405180910390fd5b60006040518060a0016040528087878080601f016020809104026020016040519081016040528093929190818152602001838380828437600081840152601f19601f82011690508083019250505050505050815260200185858080601f016020809104026020016040519081016040528093929190818152602001838380828437600081840152601f19601f8201169050808301925050505050505081526020018381526020013373ffffffffffffffffffffffffffffffffffffffff168152602001600660009054906101000a900466ffffffffffffff1666ffffffffffffff16815250905060088190806001815401808255809150506001900390600052602060002090600502016000909190919091506000820151816000019081610bb49190611ba9565b506020820151816001019081610bca9190611ba9565b506040820151816002015560608201518160030160006101000a81548173ffffffffffffffffffffffffffffffffffffffff021916908373ffffffffffffffffffffffffffffffffffffffff160217905550608082015181600401555050600160096000600660009054906101000a900466ffffffffffffff1666ffffffffffffff16815260200190815260200160002060003373ffffffffffffffffffffffffffffffffffffffff1673ffffffffffffffffffffffffffffffffffffffff16815260200190815260200160002060006101000a81548160ff0219169083151502179055506001600660008282829054906101000a900466ffffffffffffff16610cd49190611c7b565b92506101000a81548166ffffffffffffff021916908366ffffffffffffff160217905550505050505050565b610d0933610801565b610d48576040517f08c379a0000000000000000000000000000000000000000000000000000000008152600401610d3f90611d28565b60405180910390fd5b60016009600083815260200190815260200160002060003373ffffffffffffffffffffffffffffffffffffffff1673ffffffffffffffffffffffffffffffffffffffff16815260200190815260200160002060006101000a81548160ff0219169083151502179055506001600760008381526020019081526020016000206000828254610dd59190611d48565b92505081905550600254600760008381526020019081526020016000205403610e0257610e0181610e0b565b5b50565b60025481565b600060088281548110610e2157610e20611896565b5b90600052602060002090600502016040518060a0016040529081600082018054610e4a90611865565b80601f0160208091040260200160405190810160405280929190818152602001828054610e7690611865565b8015610ec35780601f10610e9857610100808354040283529160200191610ec3565b820191906000526020600020905b815481529060010190602001808311610ea657829003601f168201915b50505050508152602001600182018054610edc90611865565b80601f0160208091040260200160405190810160405280929190818152602001828054610f0890611865565b8015610f555780601f10610f2a57610100808354040283529160200191610f55565b820191906000526020600020905b815481529060010190602001808311610f3857829003601f168201915b50505050508152602001600282015481526020016003820160009054906101000a900473ffffffffffffffffffffffffffffffffffffffff1673ffffffffffffffffffffffffffffffffffffffff1673ffffffffffffffffffffffffffffffffffffffff16815260200160048201548152505090506000816060015173ffffffffffffffffffffffffffffffffffffffff168260400151604051610ff890611dad565b60006040518083038185875af1925050503d8060008114611035576040519150601f19603f3d011682016040523d82523d6000602084013e61103a565b606091505b505090508061104857600080fd5b505050565b60005b60018054905081101561111c576001818154811061107157611070611896565b5b9060005260206000200160009054906101000a900473ffffffffffffffffffffffffffffffffffffffff1673ffffffffffffffffffffffffffffffffffffffff163373ffffffffffffffffffffffffffffffffffffffff1603611109576040517f08c379a000000000000000000000000000000000000000000000000000000000815260040161110090611e34565b60405180910390fd5b8080611114906118f4565b915050611050565b50600354341461112b57600080fd5b6001339080600181540180825580915050600190039060005260206000200160009091909190916101000a81548173ffffffffffffffffffffffffffffffffffffffff021916908373ffffffffffffffffffffffffffffffffffffffff160217905550565b600081519050919050565b600082825260208201905092915050565b60005b838110156111ca5780820151818401526020810190506111af565b60008484015250505050565b6000601f19601f8301169050919050565b60006111f282611190565b6111fc818561119b565b935061120c8185602086016111ac565b611215816111d6565b840191505092915050565b6000602082019050818103600083015261123a81846111e7565b905092915050565b600081519050919050565b600082825260208201905092915050565b6000819050602082019050919050565b600073ffffffffffffffffffffffffffffffffffffffff82169050919050565b60006112998261126e565b9050919050565b6112a98161128e565b82525050565b60006112bb83836112a0565b60208301905092915050565b6000602082019050919050565b60006112df82611242565b6112e9818561124d565b93506112f48361125e565b8060005b8381101561132557815161130c88826112af565b9750611317836112c7565b9250506001810190506112f8565b5085935050505092915050565b6000602082019050818103600083015261134c81846112d4565b905092915050565b600080fd5b600080fd5b6000819050919050565b6113718161135e565b811461137c57600080fd5b50565b60008135905061138e81611368565b92915050565b61139d8161128e565b81146113a857600080fd5b50565b6000813590506113ba81611394565b92915050565b600080604083850312156113d7576113d6611354565b5b60006113e58582860161137f565b92505060206113f6858286016113ab565b9150509250929050565b60008115159050919050565b61141581611400565b82525050565b6000602082019050611430600083018461140c565b92915050565b60006020828403121561144c5761144b611354565b5b600061145a8482850161137f565b91505092915050565b61146c8161128e565b82525050565b60006020820190506114876000830184611463565b92915050565b600081519050919050565b600082825260208201905092915050565b6000819050602082019050919050565b600082825260208201905092915050565b60006114d582611190565b6114df81856114b9565b93506114ef8185602086016111ac565b6114f8816111d6565b840191505092915050565b61150c8161135e565b82525050565b600060a083016000830151848203600086015261152f82826114ca565b9150506020830151848203602086015261154982826114ca565b915050604083015161155e6040860182611503565b50606083015161157160608601826112a0565b5060808301516115846080860182611503565b508091505092915050565b600061159b8383611512565b905092915050565b6000602082019050919050565b60006115bb8261148d565b6115c58185611498565b9350836020820285016115d7856114a9565b8060005b8581101561161357848403895281516115f4858261158f565b94506115ff836115a3565b925060208a019950506001810190506115db565b50829750879550505050505092915050565b6000602082019050818103600083015261163f81846115b0565b905092915050565b60006020828403121561165d5761165c611354565b5b600061166b848285016113ab565b91505092915050565b61167d8161135e565b82525050565b600060a082019050818103600083015261169d81886111e7565b905081810360208301526116b181876111e7565b90506116c06040830186611674565b6116cd6060830185611463565b6116da6080830184611674565b9695505050505050565b60006020820190506116f96000830184611674565b92915050565b600066ffffffffffffff82169050919050565b61171b816116ff565b82525050565b60006020820190506117366000830184611712565b92915050565b600080fd5b600080fd5b600080fd5b60008083601f8401126117615761176061173c565b5b8235905067ffffffffffffffff81111561177e5761177d611741565b5b60208301915083600182028301111561179a57611799611746565b5b9250929050565b6000806000806000606086880312156117bd576117bc611354565b5b600086013567ffffffffffffffff8111156117db576117da611359565b5b6117e78882890161174b565b9550955050602086013567ffffffffffffffff81111561180a57611809611359565b5b6118168882890161174b565b935093505060406118298882890161137f565b9150509295509295909350565b7f4e487b7100000000000000000000000000000000000000000000000000000000600052602260045260246000fd5b6000600282049050600182168061187d57607f821691505b6020821081036118905761188f611836565b5b50919050565b7f4e487b7100000000000000000000000000000000000000000000000000000000600052603260045260246000fd5b7f4e487b7100000000000000000000000000000000000000000000000000000000600052601160045260246000fd5b60006118ff8261135e565b91507fffffffffffffffffffffffffffffffffffffffffffffffffffffffffffffffff8203611931576119306118c5565b5b600182019050919050565b7f596f7520617265206e6f742061206d656d626572206f66207468697320636f6e60008201527f7472616374000000000000000000000000000000000000000000000000000000602082015250565b600061199860258361119b565b91506119a38261193c565b604082019050919050565b600060208201905081810360008301526119c78161198b565b9050919050565b7f4e487b7100000000000000000000000000000000000000000000000000000000600052604160045260246000fd5b60008190508160005260206000209050919050565b60006020601f8301049050919050565b600082821b905092915050565b600060088302611a5f7fffffffffffffffffffffffffffffffffffffffffffffffffffffffffffffffff82611a22565b611a698683611a22565b95508019841693508086168417925050509392505050565b6000819050919050565b6000611aa6611aa1611a9c8461135e565b611a81565b61135e565b9050919050565b6000819050919050565b611ac083611a8b565b611ad4611acc82611aad565b848454611a2f565b825550505050565b600090565b611ae9611adc565b611af4818484611ab7565b505050565b5b81811015611b1857611b0d600082611ae1565b600181019050611afa565b5050565b601f821115611b5d57611b2e816119fd565b611b3784611a12565b81016020851015611b46578190505b611b5a611b5285611a12565b830182611af9565b50505b505050565b600082821c905092915050565b6000611b8060001984600802611b62565b1980831691505092915050565b6000611b998383611b6f565b9150826002028217905092915050565b611bb282611190565b67ffffffffffffffff811115611bcb57611bca6119ce565b5b611bd58254611865565b611be0828285611b1c565b600060209050601f831160018114611c135760008415611c01578287015190505b611c0b8582611b8d565b865550611c73565b601f198416611c21866119fd565b60005b82811015611c4957848901518255600182019150602085019450602081019050611c24565b86831015611c665784890151611c62601f891682611b6f565b8355505b6001600288020188555050505b505050505050565b6000611c86826116ff565b9150611c91836116ff565b9250828201905066ffffffffffffff811115611cb057611caf6118c5565b5b92915050565b7f596f7520617265206e6f742061206d616d626572206f66207468697320636f6e60008201527f7472616374000000000000000000000000000000000000000000000000000000602082015250565b6000611d1260258361119b565b9150611d1d82611cb6565b604082019050919050565b60006020820190508181036000830152611d4181611d05565b9050919050565b6000611d538261135e565b9150611d5e8361135e565b9250828201905080821115611d7657611d756118c5565b5b92915050565b600081905092915050565b50565b6000611d97600083611d7c565b9150611da282611d87565b600082019050919050565b6000611db882611d8a565b9150819050919050565b7f546865207573657220697320616c72656164792061206d656d626572206f662060008201527f74686520636f6e74726163740000000000000000000000000000000000000000602082015250565b6000611e1e602c8361119b565b9150611e2982611dc2565b604082019050919050565b60006020820190508181036000830152611e4d81611e11565b905091905056fea2646970667358221220f19f2dd1019b4bae595f61d8698fb35b80eb3a3d0a73b99a1a83172321c89cde64736f6c63430008110033",
  "linkReferences": {},
  "deployedLinkReferences": {}
}