{
  "_format": "hh-sol-artifact-1",
  "contractName": "MultiSignatureContract",
  "sourceName": "contracts/MultiSignatureContract.sol",
  "abi": [
    {
      "inputs": [
        {
          "internalType": "string",
          "name": "_name",
          "type": "string"
        },
        {
          "internalType": "bytes",
          "name": "_description",
          "type": "bytes"
        }
      ],
      "stateMutability": "payable",
      "type": "constructor"
    },
    {
      "inputs": [],
      "name": "addParticipant",
      "outputs": [],
      "stateMutability": "payable",
      "type": "function"
    },
    {
      "inputs": [],
      "name": "amount",
      "outputs": [
        {
          "internalType": "uint256",
          "name": "",
          "type": "uint256"
        }
      ],
      "stateMutability": "view",
      "type": "function"
    },
    {
      "inputs": [],
      "name": "description",
      "outputs": [
        {
          "internalType": "bytes",
          "name": "",
          "type": "bytes"
        }
      ],
      "stateMutability": "view",
      "type": "function"
    },
    {
      "inputs": [],
      "name": "getAllParticipants",
      "outputs": [
        {
          "internalType": "address[]",
          "name": "",
          "type": "address[]"
        }
      ],
      "stateMutability": "view",
      "type": "function"
    },
    {
      "inputs": [],
      "name": "name",
      "outputs": [
        {
          "internalType": "string",
          "name": "",
          "type": "string"
        }
      ],
      "stateMutability": "view",
      "type": "function"
    },
    {
      "inputs": [],
      "name": "owner",
      "outputs": [
        {
          "internalType": "address",
          "name": "",
          "type": "address"
        }
      ],
      "stateMutability": "view",
      "type": "function"
    },
    {
      "inputs": [
        {
          "internalType": "uint256",
          "name": "",
          "type": "uint256"
        }
      ],
      "name": "participants",
      "outputs": [
        {
          "internalType": "address",
          "name": "",
          "type": "address"
        }
      ],
      "stateMutability": "view",
      "type": "function"
    },
    {
      "inputs": [],
      "name": "required",
      "outputs": [
        {
          "internalType": "uint256",
          "name": "",
          "type": "uint256"
        }
      ],
      "stateMutability": "view",
      "type": "function"
    },
    {
      "stateMutability": "payable",
      "type": "receive"
    }
  ],
  "bytecode": "0x6080604052604051620012813803806200128183398181016040528101906200002991906200036e565b336000806101000a81548173ffffffffffffffffffffffffffffffffffffffff021916908373ffffffffffffffffffffffffffffffffffffffff16021790555034600381905550600160028190555081600490816200008991906200063e565b5080600590816200009b919062000795565b50600160008054906101000a900473ffffffffffffffffffffffffffffffffffffffff169080600181540180825580915050600190039060005260206000200160009091909190916101000a81548173ffffffffffffffffffffffffffffffffffffffff021916908373ffffffffffffffffffffffffffffffffffffffff16021790555050506200087c565b6000604051905090565b600080fd5b600080fd5b600080fd5b600080fd5b6000601f19601f8301169050919050565b7f4e487b7100000000000000000000000000000000000000000000000000000000600052604160045260246000fd5b620001908262000145565b810181811067ffffffffffffffff82111715620001b257620001b162000156565b5b80604052505050565b6000620001c762000127565b9050620001d5828262000185565b919050565b600067ffffffffffffffff821115620001f857620001f762000156565b5b620002038262000145565b9050602081019050919050565b60005b838110156200023057808201518184015260208101905062000213565b60008484015250505050565b6000620002536200024d84620001da565b620001bb565b90508281526020810184848401111562000272576200027162000140565b5b6200027f84828562000210565b509392505050565b600082601f8301126200029f576200029e6200013b565b5b8151620002b18482602086016200023c565b91505092915050565b600067ffffffffffffffff821115620002d857620002d762000156565b5b620002e38262000145565b9050602081019050919050565b6000620003076200030184620002ba565b620001bb565b90508281526020810184848401111562000326576200032562000140565b5b6200033384828562000210565b509392505050565b600082601f8301126200035357620003526200013b565b5b815162000365848260208601620002f0565b91505092915050565b6000806040838503121562000388576200038762000131565b5b600083015167ffffffffffffffff811115620003a957620003a862000136565b5b620003b78582860162000287565b925050602083015167ffffffffffffffff811115620003db57620003da62000136565b5b620003e9858286016200033b565b9150509250929050565b600081519050919050565b7f4e487b7100000000000000000000000000000000000000000000000000000000600052602260045260246000fd5b600060028204905060018216806200044657607f821691505b6020821081036200045c576200045b620003fe565b5b50919050565b60008190508160005260206000209050919050565b60006020601f8301049050919050565b600082821b905092915050565b600060088302620004c67fffffffffffffffffffffffffffffffffffffffffffffffffffffffffffffffff8262000487565b620004d2868362000487565b95508019841693508086168417925050509392505050565b6000819050919050565b6000819050919050565b60006200051f620005196200051384620004ea565b620004f4565b620004ea565b9050919050565b6000819050919050565b6200053b83620004fe565b620005536200054a8262000526565b84845462000494565b825550505050565b600090565b6200056a6200055b565b6200057781848462000530565b505050565b5b818110156200059f576200059360008262000560565b6001810190506200057d565b5050565b601f821115620005ee57620005b88162000462565b620005c38462000477565b81016020851015620005d3578190505b620005eb620005e28562000477565b8301826200057c565b50505b505050565b600082821c905092915050565b60006200061360001984600802620005f3565b1980831691505092915050565b60006200062e838362000600565b9150826002028217905092915050565b6200064982620003f3565b67ffffffffffffffff81111562000665576200066462000156565b5b6200067182546200042d565b6200067e828285620005a3565b600060209050601f831160018114620006b65760008415620006a1578287015190505b620006ad858262000620565b8655506200071d565b601f198416620006c68662000462565b60005b82811015620006f057848901518255600182019150602085019450602081019050620006c9565b868310156200071057848901516200070c601f89168262000600565b8355505b6001600288020188555050505b505050505050565b600081519050919050565b60008190508160005260206000209050919050565b601f82111562000790576200075a8162000730565b620007658462000477565b8101602085101562000775578190505b6200078d620007848562000477565b8301826200057c565b50505b505050565b620007a08262000725565b67ffffffffffffffff811115620007bc57620007bb62000156565b5b620007c882546200042d565b620007d582828562000745565b600060209050601f8311600181146200080d5760008415620007f8578287015190505b62000804858262000620565b86555062000874565b601f1984166200081d8662000730565b60005b82811015620008475784890151825560018201915060208501945060208101905062000820565b8683101562000867578489015162000863601f89168262000600565b8355505b6001600288020188555050505b505050505050565b6109f5806200088c6000396000f3fe60806040526004361061007f5760003560e01c80638da5cb5b1161004e5780638da5cb5b14610149578063aa8c217c14610174578063dc8452cd1461019f578063fffefd91146101ca57610086565b806306fdde031461008b578063195ec9ee146100b657806335c1d349146100e15780637284e4161461011e57610086565b3661008657005b600080fd5b34801561009757600080fd5b506100a06101d4565b6040516100ad91906105c0565b60405180910390f35b3480156100c257600080fd5b506100cb610262565b6040516100d891906106d2565b60405180910390f35b3480156100ed57600080fd5b506101086004803603810190610103919061072f565b6102f0565b604051610115919061076b565b60405180910390f35b34801561012a57600080fd5b5061013361032f565b60405161014091906107db565b60405180910390f35b34801561015557600080fd5b5061015e6103bd565b60405161016b919061076b565b60405180910390f35b34801561018057600080fd5b506101896103e1565b604051610196919061080c565b60405180910390f35b3480156101ab57600080fd5b506101b46103e7565b6040516101c1919061080c565b60405180910390f35b6101d26103ed565b005b600480546101e190610856565b80601f016020809104026020016040519081016040528092919081815260200182805461020d90610856565b801561025a5780601f1061022f5761010080835404028352916020019161025a565b820191906000526020600020905b81548152906001019060200180831161023d57829003601f168201915b505050505081565b606060018054806020026020016040519081016040528092919081815260200182805480156102e657602002820191906000526020600020905b8160009054906101000a900473ffffffffffffffffffffffffffffffffffffffff1673ffffffffffffffffffffffffffffffffffffffff168152602001906001019080831161029c575b5050505050905090565b6001818154811061030057600080fd5b906000526020600020016000915054906101000a900473ffffffffffffffffffffffffffffffffffffffff1681565b6005805461033c90610856565b80601f016020809104026020016040519081016040528092919081815260200182805461036890610856565b80156103b55780601f1061038a576101008083540402835291602001916103b5565b820191906000526020600020905b81548152906001019060200180831161039857829003601f168201915b505050505081565b60008054906101000a900473ffffffffffffffffffffffffffffffffffffffff1681565b60035481565b60025481565b60005b6001805490508110156104bc576001818154811061041157610410610887565b5b9060005260206000200160009054906101000a900473ffffffffffffffffffffffffffffffffffffffff1673ffffffffffffffffffffffffffffffffffffffff163373ffffffffffffffffffffffffffffffffffffffff16036104a9576040517f08c379a00000000000000000000000000000000000000000000000000000000081526004016104a090610928565b60405180910390fd5b80806104b490610977565b9150506103f0565b5060035434146104cb57600080fd5b6001339080600181540180825580915050600190039060005260206000200160009091909190916101000a81548173ffffffffffffffffffffffffffffffffffffffff021916908373ffffffffffffffffffffffffffffffffffffffff160217905550565b600081519050919050565b600082825260208201905092915050565b60005b8381101561056a57808201518184015260208101905061054f565b60008484015250505050565b6000601f19601f8301169050919050565b600061059282610530565b61059c818561053b565b93506105ac81856020860161054c565b6105b581610576565b840191505092915050565b600060208201905081810360008301526105da8184610587565b905092915050565b600081519050919050565b600082825260208201905092915050565b6000819050602082019050919050565b600073ffffffffffffffffffffffffffffffffffffffff82169050919050565b60006106398261060e565b9050919050565b6106498161062e565b82525050565b600061065b8383610640565b60208301905092915050565b6000602082019050919050565b600061067f826105e2565b61068981856105ed565b9350610694836105fe565b8060005b838110156106c55781516106ac888261064f565b97506106b783610667565b925050600181019050610698565b5085935050505092915050565b600060208201905081810360008301526106ec8184610674565b905092915050565b600080fd5b6000819050919050565b61070c816106f9565b811461071757600080fd5b50565b60008135905061072981610703565b92915050565b600060208284031215610745576107446106f4565b5b60006107538482850161071a565b91505092915050565b6107658161062e565b82525050565b6000602082019050610780600083018461075c565b92915050565b600081519050919050565b600082825260208201905092915050565b60006107ad82610786565b6107b78185610791565b93506107c781856020860161054c565b6107d081610576565b840191505092915050565b600060208201905081810360008301526107f581846107a2565b905092915050565b610806816106f9565b82525050565b600060208201905061082160008301846107fd565b92915050565b7f4e487b7100000000000000000000000000000000000000000000000000000000600052602260045260246000fd5b6000600282049050600182168061086e57607f821691505b60208210810361088157610880610827565b5b50919050565b7f4e487b7100000000000000000000000000000000000000000000000000000000600052603260045260246000fd5b7f546865207573657220697320616c72656164792061206d656d626572206f662060008201527f74686520636f6e74726163740000000000000000000000000000000000000000602082015250565b6000610912602c8361053b565b915061091d826108b6565b604082019050919050565b6000602082019050818103600083015261094181610905565b9050919050565b7f4e487b7100000000000000000000000000000000000000000000000000000000600052601160045260246000fd5b6000610982826106f9565b91507fffffffffffffffffffffffffffffffffffffffffffffffffffffffffffffffff82036109b4576109b3610948565b5b60018201905091905056fea2646970667358221220aa3276de317a1530bee64dd728e588be6913043d1a300fdfa971386bd021c3e864736f6c63430008110033",
  "linkReferences": {},
  "deployedLinkReferences": {}
}