{
  "_format": "hh-sol-artifact-1",
  "contractName": "MultiSignatureContract",
  "sourceName": "contracts/MultiSignatureContract.sol",
  "abi": [
    {
      "inputs": [],
      "stateMutability": "payable",
      "type": "constructor"
    },
    {
      "inputs": [],
      "name": "addParticipant",
      "outputs": [],
      "stateMutability": "payable",
      "type": "function"
    },
    {
      "inputs": [],
      "name": "amount",
      "outputs": [
        {
          "internalType": "uint256",
          "name": "",
          "type": "uint256"
        }
      ],
      "stateMutability": "view",
      "type": "function"
    },
    {
      "inputs": [],
      "name": "owner",
      "outputs": [
        {
          "internalType": "address",
          "name": "",
          "type": "address"
        }
      ],
      "stateMutability": "view",
      "type": "function"
    },
    {
      "inputs": [
        {
          "internalType": "uint256",
          "name": "",
          "type": "uint256"
        }
      ],
      "name": "participants",
      "outputs": [
        {
          "internalType": "address",
          "name": "",
          "type": "address"
        }
      ],
      "stateMutability": "view",
      "type": "function"
    },
    {
      "inputs": [],
      "name": "required",
      "outputs": [
        {
          "internalType": "uint256",
          "name": "",
          "type": "uint256"
        }
      ],
      "stateMutability": "view",
      "type": "function"
    },
    {
      "stateMutability": "payable",
      "type": "receive"
    }
  ],
  "bytecode": "0x6080604052336000806101000a81548173ffffffffffffffffffffffffffffffffffffffff021916908373ffffffffffffffffffffffffffffffffffffffff160217905550346003819055506001600281905550600160008054906101000a900473ffffffffffffffffffffffffffffffffffffffff169080600181540180825580915050600190039060005260206000200160009091909190916101000a81548173ffffffffffffffffffffffffffffffffffffffff021916908373ffffffffffffffffffffffffffffffffffffffff1602179055506104c4806100e56000396000f3fe60806040526004361061004e5760003560e01c806335c1d3491461005a5780638da5cb5b14610097578063aa8c217c146100c2578063dc8452cd146100ed578063fffefd911461011857610055565b3661005557005b600080fd5b34801561006657600080fd5b50610081600480360381019061007c91906102ef565b610122565b60405161008e919061035d565b60405180910390f35b3480156100a357600080fd5b506100ac610161565b6040516100b9919061035d565b60405180910390f35b3480156100ce57600080fd5b506100d7610185565b6040516100e49190610387565b60405180910390f35b3480156100f957600080fd5b5061010261018b565b60405161010f9190610387565b60405180910390f35b610120610191565b005b6001818154811061013257600080fd5b906000526020600020016000915054906101000a900473ffffffffffffffffffffffffffffffffffffffff1681565b60008054906101000a900473ffffffffffffffffffffffffffffffffffffffff1681565b60035481565b60025481565b60005b60018054905081101561022a57600181815481106101b5576101b46103a2565b5b9060005260206000200160009054906101000a900473ffffffffffffffffffffffffffffffffffffffff1673ffffffffffffffffffffffffffffffffffffffff163373ffffffffffffffffffffffffffffffffffffffff160361021757600080fd5b808061022290610400565b915050610194565b50600354341461023957600080fd5b60003073ffffffffffffffffffffffffffffffffffffffff1660035460405161026190610479565b60006040518083038185875af1925050503d806000811461029e576040519150601f19603f3d011682016040523d82523d6000602084013e6102a3565b606091505b50509050806102b157600080fd5b50565b600080fd5b6000819050919050565b6102cc816102b9565b81146102d757600080fd5b50565b6000813590506102e9816102c3565b92915050565b600060208284031215610305576103046102b4565b5b6000610313848285016102da565b91505092915050565b600073ffffffffffffffffffffffffffffffffffffffff82169050919050565b60006103478261031c565b9050919050565b6103578161033c565b82525050565b6000602082019050610372600083018461034e565b92915050565b610381816102b9565b82525050565b600060208201905061039c6000830184610378565b92915050565b7f4e487b7100000000000000000000000000000000000000000000000000000000600052603260045260246000fd5b7f4e487b7100000000000000000000000000000000000000000000000000000000600052601160045260246000fd5b600061040b826102b9565b91507fffffffffffffffffffffffffffffffffffffffffffffffffffffffffffffffff820361043d5761043c6103d1565b5b600182019050919050565b600081905092915050565b50565b6000610463600083610448565b915061046e82610453565b600082019050919050565b600061048482610456565b915081905091905056fea2646970667358221220cbf8a4758a0f10694b2f0a4997b8f3123a856f09cf1303043abe9c00f3de634c64736f6c63430008110033",
  "linkReferences": {},
  "deployedLinkReferences": {}
}